S011000050726F6A65637430312E73726563DB
S113000045C0000060C000005EC000005CC000008D
S11300105AC0000058C0000056C0000054C0000080
S113002052C0000050C000004EC000004CC0000090
S11300304AC0000048C0000047C0000044C000009F
S113004042C0000040C000003EC000003CC00000B0
S11300503AC0000038C0000036C0000034C00000C0
S113006032C0000030C000002EC000002CC00000D0
S11300702AC0000028C0000026C0000024C00000E0
S113008022C0000020C000001EC0000011241FBEBA
S1130090CFEFD0E1DEBFCDBF11E0A0E0B1E0ECE6F0
S11300A0F9E000E00BBF02C007900D92AA30B1073F
S11300B0D9F725E0AAE0B1E001C01D92A832B20749
S11300C0E1F7FED151C49CCF1F920F920FB60F924D
S11300D011248F9380911A018F3F11F410921A0109
S11300E08F910F900FBE0F901F9018958FEF8093F4
S11300F0610084BB089592E09A95F1F700C0E2E6AE
S1130100F0E0108290819B7F908390819D7F90830B
S1130110813019F48081816080838BB3682BE2E69F
S1130120F0E060838BB38062808345BB80818F7DE8
S1130130808308954FE368E18EEFDDDF40EC68E1F2
S11301408EEFD9CF0895AF92BF92DF92EF92FF92D4
S11301500F931F93CF93DF930F2EF4E2AF2EF1E0B2
S1130160BF2EF02DD12C1DC0F80111928F01F70183
S113017011927F014C2F486B68E18EEFBCDF4D2F4D
S113018068E18EEFB8DF40E068E181E0B4DFCF5F83
S1130190C83051F7F8E0AF0EB11CD39480E4D81600
S11301A041F07501EEEFFE1A8501C0E0DD2DD0644B
S11301B0DBCFDF91CF911F910F91FF90EF90DF90F4
S11301C0BF90AF900895EF92FF920F931F93CF9338
S11301D0DF938038910508F07AC06034710508F027
S11301E076C08034910524F06894FF24F4F803C0A9
S11301F06894FF24F3F88B01772314F4095F1F4FED
S11302001595079515950795159507956770707859
S1130210772334F461507109686F7F6F6F5F7F4F8C
S11302209C012F733078332334F421503109206C2E
S11302303F6F2F5F3F4FE22E4423C1F0413061F501
S1130240FC01EE0FFF1FEE0FFF1FEE0FFF1FEC5D13
S1130250FE4FE00FF11F21E030E002C0220F331FF8
S11302606A95E2F73081232B208316C0FC01EE0F40
S1130270FF1FEE0FFF1FEE0FFF1FEC5DFE4FE00FA1
S1130280F11F21E030E002C0220F331F6A95E2F72C
S11302902095308123232083EC01402F486B6F2D60
S11302A08EEF29DF4E2D40646F2D8EEF24DFCE01BB
S11302B0880F991F880F991F880F991F8C5D9E4F77
S11302C0FC01E00FF11F40816F2D81E014DFDF910D
S11302D0CF911F910F91FF90EF9008950F931F936B
S11302E0CF9388B3807F826088BB60911401709142
S11302F01501809116019091170114D2CB0168EE7B
S113030073E01CD104E610E0B80118D1FB01E05001
S1130310FF4F808183B98FEC97E00197F1F700C01C
S11303200000CFEFC3B988B3807F846088BB60913D
S11303301401709115018091160190911701F2D169
S1130340CB01B801FBD00AE010E0B801F7D0FB0103
S1130350E050FF4F808183B98FEC97E00197F1F76C
S113036000C00000C3B988B3807F886088BB6091F7
S11303701401709115018091160190911701D2D149
S1130380CB01B801DBD0FC01E050FF4F808183B981
S11303908FEC97E00197F1F700C00000C3B98FEC30
S11303A097E00197F1F700C00000CF911F910F91E2
S11303B0089580911801909119010097C1F48091DA
S11303C00A0190910B01892B49F080910C019091C5
S11303D00D01019690930D0180930C01CA9B6FC08F
S11303E081E090E0909319018093180104C081305A
S11303F0910509F050C081E090E090930B01809347
S11304000A0160910E0170910F0180910C0190918D
S11304100D01680F791F072E000C880B990BB5D1BD
S1130420209110013091110140911201509113015A
S1130430ADD020E030E040E05FE333D29B01AC017B
S11304406093100170931101809312019093130132
S113045060E070E48CE995E4FDD06093140170933E
S11304601501809316019093170110920F011092B9
S11304700E0110920D0110920C01CA991EC0109227
S113048019011092180119C082E090E090931901AB
S11304908093180102C0029791F480910E0190910B
S11304A00F01019690930F0180930E01CA9907C022
S11304B010921901109218010895CA99E5CF089570
S11304C015DE38DE40DE41E061E070E080E090E07F
S11304D07ADE8BEF8ABB9FEF95BBE1E6F0E080818B
S11304E08E7F80838FE087BB88BB92B913B887E285
S11304F087B987EA86B980E486B9C4E08FE79EE3CA
S11305000197F1F700C00000349BFECF349A85B107
S1130510885D80932505849B0EC0F89407B602FC81
S113052002C0C7BF01C017BE8FEC97E00197F1F777
S113053000C000007894D2DE3CDFE0CF97FB072EAA
S113054016F4009406D077FD08D00BD007FC05D034
S11305503EF4909581959F4F0895709561957F4FD6
S11305600895AA1BBB1B51E107C0AA1FBB1FA617F6
S1130570B70710F0A61BB70B881F991F5A95A9F748
S113058080959095BC01CD0108955058BB27AA27AA
S11305900ED04DC13ED130F043D120F031F49F3F15
S11305A011F41EF433C10EF4E095E7FB29C1E92FE1
S11305B04FD180F3BA17620773078407950718F0C1
S11305C071F49EF567C10EF4E0950B2EBA2FA02DA1
S11305D00B01B90190010C01CA01A0011124FF27EC
S11305E0591B99F0593F50F4503E68F11A16F040E7
S11305F0A22F232F342F4427585FF3CF46953795E6
S11306002795A795F0405395C9F77EF41F16BA0BAA
S1130610620B730B840BBAF09150A1F0FF0FBB1F58
S1130620661F771F881FC2F70EC0BA0F621F731FA1
S1130630841F48F4879577956795B795F7959E3FFE
S113064008F0B3CF9395880F08F09927EE0F97958C
S1130650879508950CD0EBC0E3D040F0DAD030F0A9
S113066021F45F3F19F0CCC0511115C1CFC0F0D0B7
S113067098F39923C9F35523B1F3951B550BBB2765
S1130680AA2762177307840738F09F5F5F4F220F12
S1130690331F441FAA1FA9F333D00E2E3AF0E0E80B
S11306A030D091505040E695001CCAF729D0FE2F57
S11306B027D0660F771F881FBB1F261737074807E9
S11306C0AB07B0E809F0BB0B802DBF01FF2793589F
S11306D05F4F2AF09E3F510568F092C0DCC05F3F37
S11306E0ECF3983EDCF3869577956795B795F79587
S11306F09F5FC9F7880F911D9695879597F908957F
S1130700E1E0660F771F881FBB1F6217730784071A
S1130710BA0720F0621B730B840BBA0BEE1F88F729
S1130720E095089504D06894B111B5C0089598D0A7
S113073088F09F5790F0B92F9927B751A0F0D1F0C6
S1130740660F771F881F991F1AF0BA95C9F712C050
S1130750B13081F09FD0B1E008959CC0672F782F0D
S11307608827B85F39F0B93FCCF3869577956795BC
S1130770B395D9F73EF490958095709561957F4F28
S11307808F4F9F4F0895E89409C097FB3EF49095CE
S11307908095709561957F4F8F4F9F4F9923A9F056
S11307A0F92F96E9BB279395F695879577956795E5
S11307B0B795F111F8CFFAF4BB0F11F460FF1BC029
S11307C06F5F7F4F8F4F9F4F16C0882311F096E9BC
S11307D011C0772321F09EE8872F762F05C066236A
S11307E071F096E8862F70E060E02AF09A95660F23
S11307F0771F881FDAF7880F9695879597F90895DC
S113080097F99F6780E870E060E008959FEF80ECBF
S1130810089500240A941616170618060906089562
S113082000240A9412161306140605060895092EC8
S11308300394000C11F4882352F0BB0F40F4BF2B37
S113084011F460FF04C06F5F7F4F8F4F9F4F089577
S113085057FD9058440F551F59F05F3F71F047956D
S1130860880F97FB991F61F09F3F79F08795089552
S1130870121613061406551FF2CF4695F1DF08C071
S1130880161617061806991FF1CF8695710561058E
S113089008940895E894BB2766277727CB0197F936
S11308A008950BD0C4CFB5DF28F0BADF18F0952334
S11308B009F0A6CFABCF1124EECFCADFA0F3959FEA
S11308C0D1F3950F50E0551F629FF001729FBB2733
S11308D0F00DB11D639FAA27F00DB11DAA1F649FDF
S11308E06627B00DA11D661F829F2227B00DA11D92
S11308F0621F739FB00DA11D621F839FA00D611D18
S1130900221F749F3327A00D611D231F849F600D38
S1130910211D822F762F6A2F11249F5750408AF071
S1130920E1F088234AF0EE0FFF1FBB1F661F771FFD
S1130930881F91505040A9F79E3F510570F060CF39
S1130940AACF5F3FECF3983EDCF3869577956795E5
S1130950B795F795E7959F5FC1F7FE2B880F911D1B
S10F09609695879597F90895F894FFCFB9
S10D096CC0F9A4B0999282D88098D3
S9030000FC
