:1000000045C000004BC0000049C0000047C00000D0
:1000100045C0000043C0000041C000003FC00000D8
:100020003DC000003BC0000039C0000037C00000E8
:1000300035C0000033C0000032C000002FC00000F7
:100040002DC000002BC0000029C0000027C0000008
:1000500025C0000023C0000021C000001FC0000018
:100060001DC000001BC0000019C0000017C0000028
:1000700015C0000013C0000011C000000FC0000038
:100080000DC000000BC0000009C0000011241FBEFD
:10009000CFEFD0E1DEBFCDBF85D08CC0B1CF1F92F6
:1000A0000F920FB60F9211248F939F938CE791EECE
:1000B0009DBD8CBD9F918F910F900FBE0F901F9093
:1000C00018958CE791EE9DBD8CBD1FBC85E08EBD63
:1000D00084E087BF7894089585BBE2E6F0E08081F4
:1000E0008F7E80838081877F808380818062808310
:1000F0008DE08A95F1F7000080818F7D80838DE00F
:100100008A95F1F7000008958FEF84BB809361001A
:10011000E2E6F0E08081876080838FE39CE90197CD
:10012000F1F700C000008EE3D7DF80E4D5DF88EB75
:10013000D3DF80ECD1DF8FE3CFCF089585BBE2E63C
:10014000F0E08081806180838081877F80838081EF
:10015000806280838DE08A95F1F7000080818F7D39
:1001600080838DE08A95F1F7000008951F93CF9367
:10017000DF93E2E6F0E080818360808318EB812FDB
:10018000ABDFC0E4D0E080E0D9DF2197E1F71F5F6B
:10019000103CA9F780E4A0DF88EB9EDFDF91CF91D0
:1001A0001F910895B1DFE2DF8CDF8AE18A95F1F7D4
:0801B00000C0FBCFF894FFCF63
:00000001FF
