S01700004763634170706C69636174696F6E312E737265635B
S113000045C0000060C000005EC000005CC000008D
S11300105AC0000058C0000056C0000054C0000080
S113002052C0000050C000004EC000004CC0000090
S11300304AC0000048C0000046C0000044C00000A0
S113004043C0000040C000003EC000003CC00000AF
S11300503AC0000038C0000036C0000034C00000C0
S113006032C0000030C000002EC000002CC00000D0
S11300702AC0000028C0000026C0000024C00000E0
S113008022C0000020C000001EC0000011241FBEBA
S1130090CFEFD0E1DEBFCDBF11E0A0E0B1E0E8E8F2
S11300A0F1E000E00BBF02C007900D92A031B10750
S11300B0D9F721E0A0E1B1E001C01D92A431B2075B
S11300C0E1F749D05FC09CCF1F920F920FB60F92F9
S11300D011240BB60F922F933F938F939F93EF931B
S11300E0FF9380911201909113018230910534F4B1
S11300F0019690931301809312011EC01092130174
S11301001092120180911001909111019C012F5FB6
S11301103F4F3093110120931001FC01E050FF4F39
S1130120808183B980911001909111010A9724F084
S1130130109211011092100180E782BFFF91EF919C
S11301409F918F913F912F910F900BBE0F900FBEF7
S11301500F901F9018958FEF82B984BB85BB13B89D
S113016087E083BF80E782BF81E087BF80E88FBFDD
S113017083B1809583B987EA91E60197F1F700C0CE
S10B01800000F6CFF894FFCF54
S1130188C0F9A4B0999282F880908883C6A1868E1B
S9030000FC
