:1000000045C000004BC0000049C0000047C00000D0
:1000100045C0000043C0000041C000003FC00000D8
:100020003DC000003BC0000039C0000037C00000E8
:1000300035C0000033C0000031C000002FC00000F8
:100040002DC000002BC0000029C0000027C0000008
:1000500025C0000023C0000021C000001FC0000018
:100060001DC000001BC0000019C0000017C0000028
:1000700015C0000013C0000011C000000FC0000038
:100080000DC000000BC0000009C0000011241FBEFD
:10009000CFEFD0E1DEBFCDBF28D058C0B1CF9C019B
:1000A0009AB39F659ABBD5981BBA9BB3987B9BBBB1
:1000B0002230310581F024F42130310541F00895DA
:1000C0002330310559F02430310559F008958BB3B0
:1000D00088618BBB0895DC9ADB980895DC98DB9AE5
:1000E00008958BB3877E8BBB089581E090E0D7DFC6
:1000F0002FEF89E698E1215080409040E1F700C061
:10010000000082E090E0CBDF2FEF89E698E12150FC
:1001100080409040E1F700C0000083E090E0BFDF46
:100120002FEF89E698E1215080409040E1F700C030
:10013000000084E090E0B3DF2FEF89E698E12150E2
:1001400080409040E1F700C00000CFCFF894FFCF8F
:00000001FF
