:1000000045C0000060C000005EC000005CC0000091
:100010005AC0000058C0000056C0000054C0000084
:1000200052C0000050C000004EC000004CC0000094
:100030004AC0000048C0000046C0000044C00000A4
:1000400043C0000040C000003EC000003CC00000B3
:100050003AC0000038C0000036C0000034C00000C4
:1000600032C0000030C000002EC000002CC00000D4
:100070002AC0000028C0000026C0000024C00000E4
:1000800022C0000020C000001EC0000011241FBEBE
:10009000CFEFD0E1DEBFCDBF11E0A0E0B1E0E6EBF5
:1000A000F2E000E00BBF02C007900D92AA30B1074A
:1000B000D9F721E0AAE0B1E001C01D92AF30B2074C
:1000C000E1F7B7D0F6C09CCF1F920F920FB60F92F8
:1000D00011248F939F9380910C0190910D01843690
:1000E000910530F4019690930D0180930C0107C0A7
:1000F00010920D0110920C0181E080930E018CE3AF
:1001000082BF9F918F910F900FBE0F901F901895F7
:1001100087E083BF8CE382BF81E087BF7894089536
:1001200082B18FEF82B99FE094BB13B8EFECF7E098
:100130003197F1F700C0000083B985BB8BBBFFEF9F
:1001400024E33CE0F15020403040E1F700C00000E3
:1001500013B815BA1BBA9FEFE4E3FCE09150E040FE
:10016000F040E1F700C0000083B985BB8BBB2FEFE7
:1001700034E38CE0215030408040E1F700C00000C3
:100180000895FC0190910E01992309F44EC020912D
:100190000A0130910B0121303105F1F020F02230BD
:1001A000310599F1089584E085BB8081918168EEE5
:1001B00073E058D064E670E055D0FB01E050FF4F8B
:1001C000808183B980910A0190910B0101969093EF
:1001D0000B0180930A01089582E085BB80819181A3
:1001E00064E670E03FD06AE070E03CD0FB01E05094
:1001F000FF4F808183B980910A0190910B01019694
:1002000090930B0180930A01089581E085BB808162
:1002100091816AE070E026D0FC01E050FF4F8081C0
:1002200083B910920B0110920A01089571DF78CF03
:100230000895CF93DF9300D0CDB7DEB78FEF84BBA7
:1002400082B985BB13B8F2DF02ED14E01A8309838B
:1002500080910E018823D1F3CE01019692DF109296
:100260000E01F4CF97FB072E16F4009406D077FD0D
:1002700008D00BD007FC05D03EF4909581959F4F98
:100280000895709561957F4F0895AA1BBB1B51E19E
:1002900007C0AA1FBB1FA617B70710F0A61BB70BF6
:1002A000881F991F5A95A9F780959095BC01CD019B
:0602B0000895F894FFCF51
:0A02B600C0F9A4B0999282D8809894
:00000001FF
