:1000000045C0000058C0000056C0000054C00000A9
:1000100052C0000050C000004EC000004CC00000A4
:100020004AC0000048C0000046C0000044C00000B4
:1000300042C0000040C000003EC000003CC00000C4
:100040003AC0000038C0000036C0000034C00000D4
:1000500032C0000030C000002EC000002CC00000E4
:100060002AC0000028C0000026C0000024C00000F4
:1000700022C0000020C000001EC000001CC0000004
:100080001AC0000018C0000016C0000011241FBED6
:10009000CFEFD0E1DEBFCDBF12E0A0E0B1E0E8E1FC
:1000A000F7E000E00BBF02C007900D92A63EB1073B
:1000B000D9F705D22FC3A4CF85BBE2E6F0E080815B
:1000C0008F7E80838081877F808380818062808330
:1000D0008DE08A95F1F7000080818F7D80838DE02F
:1000E0008A95F1F70000089585BBE2E6F0E0808193
:1000F000806180838081877F80838081806280832C
:100100008DE08A95F1F7000080818F7D80838DE0FE
:100110008A95F1F7000008958FEF84BB809361000A
:10012000E2E6F0E08081876080838FE39CE90197BD
:10013000F1F700C000008EE3BFDF80E4BDDF88EB95
:10014000BBDF80ECB9DF8FE3B7CF08951F93CF9368
:10015000DF93E2E6F0E080818360808318EB812FFB
:10016000ABDFC0E4D0E080E0BFDF2197E1F71F5FA5
:10017000103CA9F780E4A0DF88EB9EDFDF91CF91F0
:100180001F9108952F923F924F925F926F927F92AC
:100190008F929F92AF92BF92CF92DF92EF92FF9297
:1001A0000F931F93CF93DF93CDB7DEB729970FB689
:1001B000F894DEBF0FBECDBF2B01082F10E0C801A1
:1001C00088549F4F9A838983E2E6F0E090819160A2
:1001D000908390819D7F90836FDFF20190819923BE
:1001E00009F452C11195019511091695102F002798
:1001F00017950795980125503C4F3E832D83912CF0
:10020000312C212C0F2EFFE38F2EF02D00E010E07B
:100210000F2EF2E66F2E712CF02D49815A819A0132
:1002200040E050E029833A834B835C8306C0ED8134
:10023000FE81E017F10708F427C1903209F447C0A6
:10024000AA24A394B12C6501C00ED11E20E030E099
:1002500040E05FE3692D732D822D982D38D1E62E75
:10026000F72E89879F8397D17695762F6627779586
:100270006795C616D70619F5F5E0AF16B10439F142
:1002800080E41ADFF3018081F1E08F27F30180839E
:100290008081F2E08F27F301808369817A818B81ED
:1002A0009C81AAD1292D332D422D582D10D178D1E2
:1002B000862F02DF9E2C3F2C29848F808601FFEF42
:1002C000AF1ABF0A26E0A216B10409F0BCCF4D81D7
:1002D0005E814017510708F4D7C0F2018081803257
:1002E00009F050C0780118861F82F201808190E0E9
:1002F0008097FC01EE0FFF1FEE0FFF1FE80FF91FA5
:10030000E050FF4F2F813885E20FF31F8081ECDE34
:100310003FEFE31AF30AC7018F739927892B29F559
:10032000F3018081F1E08F27F30180838081F2E087
:100330008F27F301808369817A818B819C815CD1D5
:10034000292D332D422D582DC2D02AD1862FB4DE2F
:1003500020E030E040E05FE3692D732D822D982D81
:10036000B6D0962E372E282E892E2F8138852F5FD6
:100370003F4F38872F832530310509F0B6CF0B5F0B
:100380001F4F7BC0780118861F82F201808190E0A8
:100390008097FC01EE0FFF1FEE0FFF1FE80FF91F04
:1003A000E050FF4F2F813885E20FF31F80819CDEE4
:1003B0003FEFE31AF30AC7018F739927892B29F5B9
:1003C000F3018081F1E08F27F30180838081F2E0E7
:1003D0008F27F301808369817A818B819C810CD185
:1003E000292D332D422D582D72D0DAD0862F64DE80
:1003F00020E030E040E05FE3692D732D822D982DE1
:1004000066D0962E372E282E892E2F8138852F5F85
:100410003F4F38872F832530310509F0B6CF80E074
:1004200063DE0A5F1F4FC8018F739927892B29F557
:10043000F3018081F1E08F27F30180838081F2E076
:100440008F27F301808369817A818B819C81D4D04D
:10045000292D332D422D582D3AD0A2D0862F2CDEB7
:1004600020E030E040E05FE3692D732D822D982D70
:100470002ED0962E372E282E892EFFEF4F1A5F0A88
:10048000F20190819111D3CE80E416DE29960FB649
:10049000F894DEBF0FBECDBFDF91CF911F910F91BA
:1004A000FF90EF90DF90CF90BF90AF909F908F9094
:1004B0007F906F905F904F903F902F9008952CDE2B
:1004C00045DE60EE72E080E05DDEFFCF5058BB2776
:1004D000AA270ED0E5C0D6D030F0DBD020F031F422
:1004E0009F3F11F41EF4CBC00EF4E095E7FBC1C0B2
:1004F000E92FE7D080F3BA176207730784079507DF
:1005000018F071F49EF5FFC00EF4E0950B2EBA2F93
:10051000A02D0B01B90190010C01CA01A001112409
:10052000FF27591B99F0593F50F4503E68F11A16B5
:10053000F040A22F232F342F4427585FF3CF469546
:1005400037952795A795F0405395C9F77EF41F1668
:10055000BA0B620B730B840BBAF09150A1F0FF0F32
:10056000BB1F661F771F881FC2F70EC0BA0F621F1E
:10057000731F841F48F4879577956795B795F7950E
:100580009E3F08F0B3CF9395880F08F09927EE0FA0
:1005900097958795089504D06894B111B5C00895D2
:1005A00098D088F09F5790F0B92F9927B751A0F0B5
:1005B000D1F0660F771F881F991F1AF0BA95C9F7F7
:1005C00012C0B13081F09FD0B1E008959CC0672F78
:1005D000782F8827B85F39F0B93FCCF386957795A7
:1005E0006795B395D9F73EF4909580957095619590
:1005F0007F4F8F4F9F4F0895E89409C097FB3EF4BB
:1006000090958095709561957F4F8F4F9F4F99235F
:10061000A9F0F92F96E9BB279395F69587957795DD
:100620006795B795F111F8CFFAF4BB0F11F460FF9D
:100630001BC06F5F7F4F8F4F9F4F16C0882311F0F5
:1006400096E911C0772321F09EE8872F762F05C009
:10065000662371F096E8862F70E060E02AF09A95A4
:10066000660F771F881FDAF7880F9695879597F999
:10067000089597F99F6780E870E060E008959FEF24
:1006800080EC089500240A94161617061806090629
:10069000089500240A9412161306140605060895F8
:1006A000092E0394000C11F4882352F0BB0F40F480
:1006B000BF2B11F460FF04C06F5F7F4F8F4F9F4FC0
:1006C000089557FD9058440F551F59F05F3F71F042
:1006D0004795880F97FB991F61F09F3F79F08795A9
:1006E0000895121613061406551FF2CF4695F1DF32
:1006F00008C0161617061806991FF1CF86957105C2
:10070000610508940895E894BB2766277727CB01F5
:0807100097F90895F894FFCF5A
:10071800000000000000005F000000070007001450
:100728007F147F14242A7F2A12231308646236490F
:100738005522500005030000001C22410000412200
:100748001C0014083E081408083E08080050300031
:10075800000808080808006060000020100804026B
:100768003E5149453E00427F400042615149462181
:1007780041454B311814127F1027454545393C4AED
:10078800494930017109050336494949360649493D
:10079800291E003636000000563600000814224193
:1007A80000141414141400412214080201510906FB
:1007B800324979413E7E1111117E7F494949363EC1
:1007C800414141227F4141221C7F494949417F09DA
:1007D8000909013E4149497A7F0808087F00417F9D
:1007E80041002040413F017F081422417F404040A2
:1007F800407F020C027F7F0408107F3E4141413E4A
:100808007F090909063E4151215E7F09192946469B
:100818004949493101017F01013F4040403F1F20C4
:1008280040201F3F4038403F631408146307087096
:1008380008076151494543007F41410002040810FF
:10084800200041417F000402010204404040404032
:10085800000102040020545454787F484444383836
:1008680044444420384444487F3854545418087E3B
:100878000901020C5252523E7F0804047800447D5C
:1008880040002040443D007F1028440000417F4044
:10089800007C041804787C080404783844444438FC
:1008A8007C14141408081414187C7C0804040848E0
:1008B80054545420043F4440203C4040207C1C2099
:1008C80040201C3C4030403C44281028440C5050E8
:1008D800503C4464544C44000836410000007F00FA
:1008E800000041360800100808100878464146788C
:0608F80041746D656C0007
:00000001FF
