:100000000C944B00189518951895189518951895F7
:100010001895189518951895189518951895189578
:100020001895189518951895189518951895189568
:100030001895189518951895189518951895189558
:100040001895189518951895189518951895189548
:100050001895189518951895189518951895189538
:100060001895189518951895189518951895189528
:100070001895189518951895189518951895189518
:1000800018951895189518951895189500E010E092
:1000900008950C945D000FE30DBF01E00EBFC0E2B8
:1000A000D1E00E945B000E9446000E9459000C941F
:0C00B00049000C94490001E00895FFCFC6
:00000001FF
