:100000000C940E0118951895189518951895189533
:100010001895189518951895189518951895189578
:100020001895189518951895189518951895189568
:1000300018951895189518950C94460018951895CC
:100040001895189518951895189518951895189548
:100050001895189518951895189518951895189538
:100060001895189518951895189518951895189528
:100070001895189518951895189518951895189518
:100080001895189518951895189518951A930A9318
:100090001FB700915A010F3F19F400E000935A0175
:1000A0001FBF099119911895E4E00C9437030C9443
:1000B000320308B3007F026020D048EE53E01BD02B
:1000C0008A0144E623D0046018D044E613D08A01A4
:1000D0004AE01CD0086011D04AE00CD0FA01E05C84
:1000E000FE4F008901D00FEF03B90AEF00000A9517
:1000F000E9F7089550E00C94350108BBE0E4F1E025
:1001000000811181228133810C94130350E00E94FD
:100110003501F801E05CFE4F0089E6DF0FEF03B91F
:1001200008B3007F0895C3DFA0E4B1E0FD0124859A
:10013000358500851185C801012B59F40685178581
:10014000012B11F02F5F3F4FCA9B40C081E090E030
:1001500003C081301040D1F501E010E00687178719
:10016000448155816681778102851385020F131FB3
:10017000212F220F220B322F0E9492010E94D301C5
:1001800040E050E060E07FE30E942C02A801B9014A
:10019000FD01448355836683778300E010E42EE4F9
:1001A00035E40E94A1020D931D932D933C93139768
:1001B000FD0100E00287038720E030E0CA9902C019
:1001C00080E090E0CA9B02C082E090E024873587FF
:1001D000823000E0900751F4028513850F5F1F4FB6
:1001E00002871387CA9902C080E090E080879187D8
:1001F0005BCF0BEF0ABB0FEF05BB009161000E7FD9
:10020000009361000FE007BB08BB0FEF02B900E0ED
:1002100003B94FDF88DFFDCF0C947D030FE30DBFE3
:1002200001E00EBFC0E2D1E00E944003002311F0C4
:100230000E9452030E94F9000E9420010C940C01BC
:100240000C940C0100241124E0E1001F111FEA9519
:1002500042F0001C111C04161506B8F3041A150A06
:10026000F4CFA001009510950895FF27552312F4AF
:10027000F1600FD0112312F4F09507D00E942201F3
:10028000F0FD03D0F1FD05C00895119501951040D2
:1002900008955195419550400895369527951795A5
:1002A00007954A95D2F708953095209510950195B8
:1002B0001F4F2F4F3F4F0895FF27172E660F771FB1
:1002C000089409F4771F6795EE27032E220F331F3A
:1002D000089409F4331F27950895222342F0323001
:1002E00030F03A95EE0F001F111F221FC2F7E038C1
:1002F00021F400FF08940EF488940F4F1F4F2F4FE6
:100300003F4F323038F4332319F427FD31E002C077
:1003100027FF30E03F3F29F0220F000C379527954B
:10032000089586C0032E002012F40E945401E02F8D
:10033000012F122F232F3EE9E894CFCFF901EE0FC2
:10034000FF1F37FBFF3F31F0EF2BE12BE02B8894B1
:10035000B8940895EE2321F008949894B8940895E1
:100360009894889438940895FB01EE0FFF1F77FB53
:10037000FF3F31F0EF2BE52BE42B8894B8940895E0
:10038000EE2371F3E9CFF0DF68F021F43723262F55
:100390008A010895372FFBCFE7DF20F00BF0089597
:1003A0007327EAF749C0CADFE8F3B3F361F3DCDF90
:1003B000C8F383F3A1F380DF401751076207730787
:1003C00029F4302C3124E2F400242CC058F0F90137
:1003D0009B01BF01F8018A01AF01E0E0F0E0302CA1
:1003E000012C132C731B39F0669557954795F7959B
:1003F000E0407395C9F7E7FBEE0FE0E010246AF0E8
:10040000EF0F041F151F261F60F4279517950795FA
:10041000E79508F46894339560CFEF0B040B150B48
:10042000260B5BCF302D3078222711270027089527
:100430003FE7302920E8F9CF3FEF2FEFF6CF94DFE9
:10044000D8F3D1F37078372708958EDFA8F3A3F39C
:10045000F9CF307837279BCF71DF70F383F3A9F39F
:1004600083DF50F3B3F3A9F327DF0124E8943F5768
:10047000E040370FEF1F12F021F0DACF393E90F253
:100480006894302C049FF001059F7727F00D711DB3
:10049000149F2224F00D711D221C069F0027700D51
:1004A000211C001F249F4427700D211C041F159F31
:1004B000700D211C041F169F1127200C011D111FF8
:1004C000259F200C011D141F269F000D111D5EF499
:1004D00033951695079527947795F795E795339576
:1004E0003130BCF314C0112322F0332349F4339587
:1004F0000EC0339561F4032C9BCF3A95313038F020
:10050000EE0FFF1F771F221C001F111FB2F7E89488
:10051000FE2B09F06894212F102F022DE72F032CBA
:10052000E6CE22DF20F01BF070783727089584CFC5
:100530001BDFE9F3E0F3032E072674CF032E072613
:1005400077CFFCDEA0F36BF399F30EDF80F39BF320
:10055000A9F3B2DE012427FD06C03150E040000FB0
:10056000111F221FD2F767FD06C07150F040440FE3
:10057000551F661FD2F7E894371BEF0B3158EF4F2A
:100580002AF0EE23E9F63F3FD9F203C0393EA8F244
:100590006894E0E0F0E040175107620738F031500E
:1005A00008F46894000F111F221FEE1F71E0112440
:1005B000222409C0000F111F221FEE1F0417150768
:1005C0002607EF0720F0041B150B260BEF0B771FF8
:1005D000111C221C78F7000F111F221FEE1F041799
:1005E00015072607EF073E2EF0F9E894E0E839F00A
:1005F00008F4E0E0322A312A302A09F06894709534
:1006000010942094332311F0F0FF09C0269417941E
:100610007795E79508F4689433953130BCF3072F4C
:10062000112D222D64CE50DE3F5748F03F3168F047
:1006300007FCF8CE3FE72FEF1FEF0FEF089530E0F4
:1006400020E0890110E000E00895432F322F212F90
:10065000102F0E2F4F5141950E94510107FE089512
:100660000C945401BA93AA939A938A930895BB81E8
:10067000AA8199818881F0E0EC0FFD1FEF010895B8
:1006800001E0089520E02D9301501040E1F7089516
:100690003BBF26912D93EF5FFF4F3F4F015010401E
:1006A000B9F708954CEF56E060E0FA01362F3BBFF2
:1006B00007911691FA01EE5FFF4F3F4F3BBFA791A5
:1006C000B691FA01362FEC5FFF4F3F4F3BBF0790CB
:1006D00017902690202D2129222921F0F001322D7A
:1006E000D7DF01C0CFDF495F5F4F6F4F17E020E0DA
:1006F0004A3051076207C8F20895FFCF1A0040013F
:100700000A070001005A010000000000000000007C
:1007100000000000000000000000C0F9A4B09992A1
:0407200082D8809863
:00000001FF
